:100000000C9462000C948A000C948A000C948A0070
:100010000C948A000C948A000C948A000C948A0038
:100020000C948A000C948A000C948A000C948A0028
:100030000C948A000C948A000C948A000C948A0018
:100040000C947C040C948A000C94EC040C94C6046C
:100050000C948A000C948A000C948A000C948A00F8
:100060000C948A000C948A000000000024002700F1
:100070002A0000000000250028002B0000000000DE
:1000800023002600290004040404040404040202DA
:100090000202020203030303030301020408102007
:1000A0004080010204081020010204081020000012
:1000B0000008000201000003040700000000000027
:1000C00000001E0511241FBECFEFD8E0DEBFCDBF5C
:1000D00011E0A0E0B1E0E6E4FDE002C005900D9281
:1000E000AE34B107D9F722E0AEE4B1E001C01D9211
:1000F000AE30B207E1F710E0C2E6D0E004C02197CD
:10010000FE010E949B06C136D107C9F70E9468050F
:100110000C94A1060C940000833081F028F4813007
:1001200099F08230A9F008958730A9F08830C9F09D
:100130008430B1F4809180008F7D03C08091800075
:100140008F7780938000089584B58F7784BD08955C
:1001500084B58F7DFBCF8091B0008F778093B00006
:1001600008958091B0008F7DF9CFCF93DF93282F32
:1001700030E0F901E255FF4F8491F901E656FF4F57
:10018000D491F901EA57FF4FC491CC23A1F081111A
:100190000E948C00EC2FF0E0EE0FFF1FE458FF4FA1
:1001A000A591B491EC91ED2381E090E009F480E019
:1001B000DF91CF91089580E090E0FACF1F93CF9325
:1001C000DF93282F30E0F901E255FF4F8491F901C8
:1001D000E656FF4FD491F901EA57FF4FC491CC2363
:1001E000A9F0162F81110E948C00EC2FF0E0EE0F89
:1001F000FF1FEE58FF4FA591B4918FB7F894EC9183
:10020000111108C0D095DE23DC938FBFDF91CF9111
:100210001F910895DE2BF8CFCF93DF9390E0FC0180
:10022000E656FF4F24918A579F4FFC018491882303
:10023000D1F090E0880F991FFC01E859FF4FA5917C
:10024000B491FC01EE58FF4FC591D49161110EC0DD
:100250009FB7F8948C91E22FE0958E238C932881A0
:10026000E223E8839FBFDF91CF9108958FB7F89481
:10027000EC91E22BEC938FBFF6CF3FB7F8948091CF
:10028000550190915601A0915701B091580126B5A2
:10029000A89B05C02F3F19F00196A11DB11D3FBFBE
:1002A000BA2FA92F982F8827BC01CD01620F711D8D
:1002B000811D911D42E0660F771F881F991F4A9587
:1002C000D1F708958F929F92AF92BF92CF92DF9213
:1002D000EF92FF920E943D014B015C0184EFC82E1A
:1002E000DD24D394E12CF12C0E943D016819790999
:1002F0008A099B09683E734081059105A8F321E0B6
:10030000C21AD108E108F10888EE880E83E0981E31
:10031000A11CB11CC114D104E104F10429F7FF9020
:10032000EF90DF90CF90BF90AF909F908F90089507
:10033000AF92BF92CF92DF92EF92FF920F931F93F3
:10034000CF93DF936C017B018B01040F151FEB0131
:100350005E01AE18BF08C017D10759F06991D601E8
:10036000ED91FC910190F081E02DC6010995892B5A
:1003700079F7C501DF91CF911F910F91FF90EF9019
:10038000DF90CF90BF90AF900895FC01538D448DC6
:10039000252F30E0842F90E0821B930B541710F030
:1003A000CF96089501970895FC01918D828D98173D
:1003B00061F0A28DAE0FBF2FB11D5D968C91928D15
:1003C0009F5F9F73928F90E008958FEF9FEF089546
:1003D000FC01918D828D981731F0828DE80FF11D0F
:1003E000858D90E008958FEF9FEF0895FC01918D2A
:1003F000228D892F90E0805C9F4F821B91098F7323
:100400009927089589E591E00E94F60121E0892B62
:1004100009F420E0822F089580E090E0892B29F0F4
:100420000E94020281110C9400000895FC01A48D29
:10043000A80FB92FB11DA35ABF4F2C91848D90E006
:1004400001968F739927848FA689B7892C93A089E9
:10045000B1898C91837080648C93938D848D981373
:1004600006C00288F389E02D80818F7D8083089506
:10047000EF92FF920F931F93CF93DF93EC0181E0F4
:10048000888F9B8D8C8D98131AC0E889F98980819B
:1004900085FF15C09FB7F894EE89FF896083E889CE
:1004A000F98980818370806480839FBF81E090E0C0
:1004B000DF91CF911F910F91FF90EF900895F62E4D
:1004C0000B8D10E00F5F1F4F0F731127E02E8C8DE7
:1004D0008E110CC00FB607FCFACFE889F98980812C
:1004E00085FFF5CFCE010E941602F1CFEB8DEC0F08
:1004F000FD2FF11DE35AFF4FF0829FB7F8940B8F49
:10050000EA89FB8980818062CFCFCF93DF93EC01B2
:10051000888D8823B9F0AA89BB89E889F9898C91EB
:1005200085FD03C0808186FD0DC00FB607FCF7CFA7
:100530008C9185FFF2CF808185FFEDCFCE010E94A7
:100540001602E9CFDF91CF910895089590E080E001
:100550000895CF93DF93EC0160E08E810E94DE006E
:1005600061E08E810E94DE0060E08E810E94DE00EC
:100570008BE891E00197F1F7DF91CF910895CF9249
:10058000DF92EF92FF920F931F93CF93DF936C0153
:100590007C0187E0E80EF11CD0E0C0E0062F10E0FF
:1005A000B8010C2E02C0759567950A94E2F7617048
:1005B000F70181917F010E94DE002196C430D105B0
:1005C00079F7C601DF91CF911F910F91FF90EF90C6
:1005D000DF90CF900C94A902CF92DF92EF92FF921E
:1005E0000F931F93CF93DF93EC01F62E642F8C8132
:1005F0000E94DE008D818F3F19F060E00E94DE00D6
:100600000F2D10E08F8584FF25C06E0187E0C80E96
:10061000D11CF12CE12CB8010E2C02C07595679508
:100620000A94E2F76170F60181916F010E94DE0089
:10063000FFEFEF1AFF0A88E0E816F10461F7CE0138
:10064000DF91CF911F910F91FF90EF90DF90CF90AE
:100650000C94A902B80184E0759567958A95E1F735
:10066000CE010E94BF026F2DCE01DF91CF911F916D
:100670000F91FF90EF90DF90CF900C94BF0240E07D
:10068000682F86EF91E00C94EC02CF93DF938230D9
:1006900029F49091050298609093050280930902D5
:1006A00010920A0280E480930B0280E180930C0296
:1006B00080E580930D0261E08091FA010E940C01B7
:1006C0008091FB018F3F19F061E00E940C0161E015
:1006D0008091FC010E940C01C6EFD1E09E01265FD3
:1006E00031408091050284FD0BC084E090E02196AA
:1006F0002817390744F461E08E810E940C01EECF87
:1007000088E090E0F4CF8BE39DE00197F1F760E0A3
:100710008091FA010E94DE0060E08091FC010E945D
:10072000DE008091FB018F3F19F060E00E94DE0047
:100730008091050284FD39C063E086EF91E00E945C
:10074000BF02CBE4D6E4CE010197F1F763E086EF78
:1007500091E00E94BF022197F1F763E086EF91E0FC
:100760000E94BF0283E592E00197F1F762E086EF15
:1007700091E00E94BF028091050280620E943F03C7
:1007800084E0809306028CE00E943F0381E00E9497
:100790003F038BE39FE10197F1F782E0809307022B
:1007A00086E0DF91CF910C943F0380620E943F036B
:1007B0008BE496E40197F1F78091050280620E9434
:1007C0003F0383E592E00197F1F780910502806293
:1007D0000E943F03D0CF41E00E94EC0281E090E014
:1007E0000895FB0101900020E9F73197AF01461B06
:1007F000570BDC01ED91FC910280F381E02D09940F
:100800008F929F92AF92BF92CF92DF92EF92FF9220
:10081000CF93DF93CDB7DEB7A1970FB6F894DEBFC5
:100820000FBECDBF6C01990FEE08FF08F7FE40C068
:1008300041E06DE286EF91E00E94EC02222733272F
:10084000A9012C193D094E095F0919A2CE01819613
:100850007C019AE0892E912CA12CB12CCA01B901FE
:10086000A50194010E947906605DF70162937F0102
:10087000211531054105510589F790E080E0309759
:1008800029F0BF0186EF91E00E94F1030196A19645
:100890000FB6F894DEBF0FBECDBFDF91CF91FF90B2
:1008A000EF90DF90CF90BF90AF909F908F90089582
:1008B000A701960119A2CE0181967C018AE0882EBB
:1008C000912CA12CB12CCA01B901A50194010E945F
:1008D0007906605DF70162937F01211531054105BD
:1008E000510589F790E080E0309789F2BF0186EFEB
:1008F00091E00E94F103CBCF1F920F920FB60F929F
:1009000011242F933F938F939F93AF93BF93809125
:10091000510190915201A0915301B0915401309135
:10092000500123E0230F2D3758F50196A11DB11D6D
:10093000209350018093510190935201A093530151
:10094000B09354018091550190915601A0915701A7
:10095000B09158010196A11DB11D8093550190934E
:100960005601A0935701B0935801BF91AF919F9149
:100970008F913F912F910F900FBE0F901F90189560
:1009800026E8230F0296A11DB11DD2CF1F920F9210
:100990000FB60F9211242F933F934F935F936F9352
:1009A0007F938F939F93AF93BF93EF93FF9389E5CB
:1009B00091E00E941602FF91EF91BF91AF919F913C
:1009C0008F917F916F915F914F913F912F910F90F8
:1009D0000FBE0F901F9018951F920F920FB60F9297
:1009E00011242F938F939F93EF93FF93E0916901CD
:1009F000F0916A018081E0916F01F091700182FDB8
:100A00001BC09081809172018F5F8F732091730161
:100A1000821741F0E0917201F0E0E75AFE4F958FA6
:100A200080937201FF91EF919F918F912F910F9081
:100A30000FBE0F901F9018958081F4CFE9E5F1E08B
:100A40001382128288EE93E0A0E0B0E08483958365
:100A5000A683B78384E091E09183808385EC90E066
:100A60009587848784EC90E09787868780EC90E078
:100A7000918B808B81EC90E0938B828B82EC90E069
:100A8000958B848B86EC90E0978B868B118E128EE3
:100A9000138E148EE6EFF1E01382128286E191E06C
:100AA000918380838CE084838FEF85838BE08683C2
:100AB00085E0878384E0808783E0818782E0828786
:100AC0001386148615861686178681E00C944503D6
:100AD000789484B5826084BD84B5816084BD85B519
:100AE000826085BD85B5816085BD80916E00816025
:100AF00080936E00109281008091810082608093CB
:100B000081008091810081608093810080918000CC
:100B10008160809380008091B10084608093B100F7
:100B20008091B00081608093B00080917A008460F1
:100B300080937A0080917A00826080937A0080911D
:100B40007A00816080937A0080917A008068809337
:100B50007A001092C10061E08DE00E940C01E091EA
:100B60006901F0916A0182E08083E0916501F09172
:100B700066011082E0916701F09168018FEC80833B
:100B800010927101E0916D01F0916E0186E0808319
:100B9000E0916B01F0916C01808180618083E09134
:100BA0006B01F0916C01808188608083E0916B0122
:100BB000F0916C01808180688083E0916B01F091FD
:100BC0006C0180818F7D808360E086E00E940C0153
:100BD00060E087E00E940C0182E00E944503C0E0D3
:100BE000D0E086E00E94B5008C0187E00E94B5004D
:100BF0007C01E1E0809109028111E0E0E195F0E003
:100C0000EA50FE4F848980680E943F036EE171E0E4
:100C100086EF91E00E94F1030130110509F044C014
:100C2000EF28E9F400914E0110914F010E946201FA
:100C300087E00E94B500892B91F40F5F1F4F10933E
:100C40004F0100934E016DE271E089E591E00E9451
:100C5000F1036DE371E089E591E00E94F103E09119
:100C60000902E230E8F5E150F0E0EA50FE4F8489F5
:100C700080680E943F0300914E0110914F011016B1
:100C8000110684F561E08DE00E94DE00C8010E943B
:100C90000004209709F4A5CF0E940202882309F4DA
:100CA000A0CF0E9400009DCFEA94EF28C1F6012B4F
:100CB000B1F600914E0110914F010E94620186E051
:100CC0000E94B500892B59F61016110634F4015014
:100CD000110910934F0100934E0160E471E0B5CF0C
:100CE000E1E0C2CF60E08DE00E94DE0090E080E0B5
:100CF000CECFA1E21A2EAA1BBB1BFD010DC0AA1F5D
:100D0000BB1FEE1FFF1FA217B307E407F50720F074
:100D1000A21BB30BE40BF50B661F771F881F991FEF
:100D20001A9469F760957095809590959B01AC0138
:100D3000BD01CF010895EE0FFF1F0590F491E02D46
:060D40000994F894FFCFB6
:100D46000000000038029801C5018502F601D401B1
:100D5600E80100000000EB039801A602A50256492F
:100D66005349544F5220434F554E543A00506572E2
:100D7600736F6E20656E746572656421000D0A00DE
:0E0D8600506572736F6E206C656674210000FC
:00000001FF
