:100000000C9462000C948A000C948A000C948A0070
:100010000C948A000C948A000C948A000C948A0038
:100020000C948A000C948A000C948A000C948A0028
:100030000C948A000C948A000C948A000C948A0018
:100040000C94BF020C948A000C942F030C940903A7
:100050000C948A000C948A000C948A000C948A00F8
:100060000C948A000C948A000000000024002700F1
:100070002A000000000023002600290000000000E4
:10008000250028002B0004040404040404040202D4
:100090000202020203030303030301020408102007
:1000A0004080010204081020010204081020000012
:1000B0000008000201000003040700000000000027
:1000C0000000320411241FBECFEFD8E0DEBFCDBF49
:1000D00011E0A0E0B1E0EEECF8E002C005900D9276
:1000E000A233B107D9F721E0A2E3B1E001C01D922C
:1000F000AA3DB207E1F710E0C2E6D0E004C02197C4
:10010000FE010E945F04C136D107C9F70E94610356
:100110000C9465040C940000833081F028F4813045
:1001200099F08230A9F008958730A9F08830C9F09D
:100130008430B1F4809180008F7D03C08091800075
:100140008F7780938000089584B58F7784BD08955C
:1001500084B58F7DFBCF8091B0008F778093B00006
:1001600008958091B0008F7DF9CF1F93CF93DF93D7
:10017000EBEBF0E09491E7EAF0E0D491E3E9F0E012
:10018000C491CC23B9F0182F992319F0892F0E941C
:100190008C00EC2FF0E0EE0FFF1FE458FF4FA5910D
:1001A000B4918FB7F894EC91111108C0D095DE236B
:1001B000DC938FBFDF91CF911F910895DE2BF8CF95
:1001C000CF93DF93282F30E0F901E255FF4F849160
:1001D000F901E656FF4FD491F901EA57FF4FC49158
:1001E000CC23A1F081110E948C00EC2FF0E0EE0FE7
:1001F000FF1FEE58FF4FA591B491EC91ED2381E0E4
:1002000090E009F480E0DF91CF91089580E090E0E4
:10021000FACFCF93DF9390E0FC01E656FF4F249195
:100220008A579F4FFC0184918823D1F090E0880F7A
:10023000991FFC01E859FF4FA591B491FC01E458C6
:10024000FF4FC591D49161110EC09FB7F8948C9166
:10025000E22FE0958E238C932881E223E8839FBFD1
:10026000DF91CF9108958FB7F894EC91E22BEC9346
:100270008FBFF6CF3FB7F8948091390190913A0142
:10028000A0913B01B0913C0126B5A89B05C02F3F32
:1002900019F00196A11DB11D3FBFBA2FA92F982FAC
:1002A0008827BC01CD01620F711D811D911D42E0A7
:1002B000660F771F881F991F4A95D1F708958F926F
:1002C0009F92AF92BF92CF92DF92EF92FF920E94E5
:1002D0003A014B015C0184EFC82EDD24D394E12C5C
:1002E000F12C0E943A01681979098A099B09683E34
:1002F000734081059105A8F321E0C21AD108E108F5
:10030000F10888EE880E83E0981EA11CB11CC11470
:10031000D104E104F10429F7FF90EF90DF90CF9032
:10032000BF90AF909F908F900895AF92BF92CF9261
:10033000DF92EF92FF920F931F93CF93DF936C01A5
:100340007B018B01040F151FEB015E01AE18BF0886
:10035000C017D10759F06991D601ED91FC91019038
:10036000F081E02DC6010995892B79F7C501DF9150
:10037000CF911F910F91FF90EF90DF90CF90BF90A2
:10038000AF900895FC01538D448D252F30E0842FCC
:1003900090E0821B930B541710F0CF9608950197AD
:1003A0000895FC01918D828D981761F0A28DAE0F9A
:1003B000BF2FB11D5D968C91928D9F5F9F73928F21
:1003C00090E008958FEF9FEF0895FC01918D828D4D
:1003D000981731F0828DE80FF11D858D90E008951A
:1003E0008FEF9FEF0895FC01918D228D892F90E072
:1003F000805C9F4F821B91098F73992708958DE32D
:1004000091E00E94F30121E0892B09F420E0822F82
:10041000089580E090E0892B29F00E94FF0181116E
:100420000C9400000895FC01A48DA80FB92FB11DF4
:10043000A35ABF4F2C91848D90E001968F7399271A
:10044000848FA689B7892C93A089B1898C918370F8
:1004500080648C93938D848D981306C00288F389F1
:10046000E02D80818F7D80830895EF92FF920F931E
:100470001F93CF93DF93EC0181E0888F9B8D8C8D50
:1004800098131AC0E889F989808185FF15C09FB744
:10049000F894EE89FF896083E889F9898081837007
:1004A000806480839FBF81E090E0DF91CF911F91B6
:1004B0000F91FF90EF900895F62E0B8D10E00F5FD7
:1004C0001F4F0F731127E02E8C8D8E110CC00FB6AD
:1004D00007FCFACFE889F989808185FFF5CFCE0145
:1004E0000E941302F1CFEB8DEC0FFD2FF11DE35AAB
:1004F000FF4FF0829FB7F8940B8FEA89FB898081C8
:100500008062CFCFCF93DF93EC01888D8823B9F041
:10051000AA89BB89E889F9898C9185FD03C080810E
:1005200086FD0DC00FB607FCF7CF8C9185FFF2CF8B
:10053000808185FFEDCFCE010E941302E9CFDF91CC
:10054000CF910895CF93DF93FC0101900020E9F74C
:100550003197AF01481B590BBC018DE391E00E941C
:100560009501EC0142E050E062E171E08DE391E041
:100570000E9495018C0F9D1FDF91CF9108951F92CE
:100580000F920FB60F9211242F933F938F939F9347
:10059000AF93BF938091350190913601A0913701BF
:1005A000B09138013091340123E0230F2D3758F5F5
:1005B0000196A11DB11D20933401809335019093C4
:1005C0003601A0933701B0933801809139019091A1
:1005D0003A01A0913B01B0913C010196A11DB11DD2
:1005E0008093390190933A01A0933B01B0933C0171
:1005F000BF91AF919F918F913F912F910F900FBE1F
:100600000F901F90189526E8230F0296A11DB11D8B
:10061000D2CF1F920F920FB60F9211242F933F93B8
:100620004F935F936F937F938F939F93AF93BF93FA
:10063000EF93FF938DE391E00E941302FF91EF91FE
:10064000BF91AF919F918F917F916F915F914F91EA
:100650003F912F910F900FBE0F901F9018951F92F2
:100660000F920FB60F9211242F938F939F93EF93B6
:10067000FF93E0914D01F0914E018081E091530193
:10068000F091540182FD1BC09081809156018F5FD3
:100690008F7320915701821741F0E0915601F0E0ED
:1006A000E35CFE4F958F80935601FF91EF919F91F0
:1006B0008F912F910F900FBE0F901F9018958081F2
:1006C000F4CF789484B5826084BD84B5816084BDA4
:1006D00085B5826085BD85B5816085BD80916E00E0
:1006E000816080936E001092810080918100826011
:1006F000809381008091810081608093810080914E
:1007000080008160809380008091B100846080933C
:10071000B1008091B00081608093B00080917A0038
:10072000846080937A0080917A00826080937A005E
:1007300080917A00816080937A0080917A0080684D
:1007400080937A001092C10061E08DE00E9409015F
:10075000E0914D01F0914E0182E08083E0914901EA
:10076000F0914A011082E0914B01F0914C018FEC25
:10077000808310925501E0915101F091520186E081
:100780008083E0914F01F0915001808180618083EE
:10079000E0914F01F0915001808188608083E09169
:1007A0004F01F0915001808180688083E0914F017A
:1007B000F091500180818F7D808360E086E00E940F
:1007C000090160E087E00E94090180E0E82E80E0F6
:1007D000F82E86E00E94E0008C0187E00E94E00095
:1007E000C0913201D09133010130110531F5892BCF
:1007F00081F40E945F0187E00E94E000892B49F4A8
:100800002196D0933301C093320185E191E00E949B
:10081000A20280913201909133011816190604F555
:1008200081E00E94B500E114F10499F20E94FF01F9
:10083000882379F20E940000CCCF019751F7012B59
:1008400041F70E945F0186E00E94E000892B09F7D2
:100850002197D0933301C093320185E291E0D7CF45
:1008600080E0DFCFEDE3F1E01382128288EE93E0C7
:10087000A0E0B0E084839583A683B78384E091E011
:100880009183808385EC90E09587848784EC90E069
:100890009787868780EC90E0918B808B81EC90E04D
:1008A000938B828B82EC90E0958B848B86EC90E02E
:1008B000978B868B118E128E138E148E0895EE0FE9
:0E08C000FF1F0590F491E02D0994F894FFCFEE
:1008CE000000000035029501C2018202F301D10140
:1008DE00E5010D0A00506572736F6E20656E7465CA
:1008EE007265642100506572736F6E206C6566745C
:0208FE002100D7
:00000001FF
