:020000020000FC
:1000000000EF0AB90FEF04B9289887D00BD03DD084
:100010001AD083D018D081D061D014E083D01A9543
:10002000E9F7F5CF03E30FD078D002E30CD075D019
:1000300008E209D072D00CE006D001E004D06DD007
:1000400006E001D00895B02FB07FBBB92998289A57
:100050005CD028985DD0B02FB295B07FBBB9289AFC
:1000600054D0289855D00895B02FB07FBBB9299AA5
:10007000289A4BD028984CD0B02FB295B07FBBB9FE
:10008000289A43D0289844D0089506E5EDDF09E486
:10009000EBDF03E5E9DF09E4E7DF04E5E5DF0FE493
:1000A000E3DF02E5E1DF00E2DFDF03E4DDDF0FE4B1
:1000B000DBDF05E5D9DF0EE4D7DF04E5D5DF0AE3B2
:1000C000D3DF00E2D1DF00E2CFDF2CD000C000ECB4
:1000D000BADF23D000E3C8DF25D00895222719B165
:1000E0001F70113019F01F70123031F01F70123074
:1000F00001F03395303031F01F70113001F03A9536
:10010000303001F02D98E3DFE9CF000000000895C2
:100110004AE5FBDF4A95E9F7089558E2F9DF5A9579
:10012000E9F708954FEF5FEF64E16A95F1F75A95AB
:08013000D9F74A95C1F70895C3
:00000001FF
